:017f920001ed
:01e600000118
:0e000000020d5290e682e044c0f090e681f0de
:10000e004387010000000000227400f58690fda5d4
:10001e007c05a3e582458370f922d3223202119624
:10002e0053d8ef323202002e000102020303040401
:10003e000505d32232020c00d322d32232020a73d8
:10004e00d322d32232020c0090e678e05410ffc483
:10005e00540f4450f51913e433f51cd20290e6b94f
:10006e00e0245e605024f0603024d2b408004003d7
:10007e000204d590008f75f003a4c58325f0c583c7
:10008e007302024b0202960202dc02044602038c49
:10009e000204d50204d5020465a205e43390e740bc
:0f00ae00f0e490e68af090e68b04f090e6a0e094
:1000bd004480f00204d790e6bae0752d00f52ea32a
:1000cd00e0fee4ee422d90e6bee0752f00f530a384
:0e00dd00e0fee4ee422f90e6b8e064c060035f
:1000eb000201b3e530452f70030204d790e6a0e080
:0e00fb0020e1f9c3e5309440e52f9400500851
:0e010900852f31853032800675310075324009
:0f01170090e6b9e0b4a335e4f533f534c3e5342d
:100126009532e53395315060e52e2534f582e52d7f
:0f0136003533f583e0ff74402534f582e434e778
:0f014500f583eff00534e5347002053380d0e424
:0f015400f533f534c3e5349532e5339531501862
:1001630074402534f582e434e7f58374cdf0053427
:10017300e5347002053380ddad327ae779407ee7fe
:100183007f40ab07af2eae2d120fbde490e68af091
:1001930090e68be532f0252ef52ee531352df52d44
:1001a300c3e5309532f530e52f9531f52f0200ee9a
:0f01b30090e6b8e0644060030204d7e530452fc2
:0e01c20070030204d7e490e68af090e68bf01a
:1001d00090e6a0e020e1f990e68be0753100f53281
:0f01e00090e6b9e0b4a335e4f533f534c3e53464
:0f01ef009532e5339531503874402534f582e46c
:1001fe0034e7f583e0ffe52e2534f582e52d353322
:10020e00f583eff00534e5347002053380d0ad325e
:0e021e007ae779407ee77f40ab07af2eae2d2a
:10022c0012112de532252ef52ee531352df52dc388
:10023c00e5309532f530e52f9531f52f0201bee40e
:0f024c0090e68af090e68bf090e6a0e020e1f9d2
:10025b0090e740e0f53514602914601d24fd601013
:10026b0024fb60030204d7c2a4d2a3d2a20204d7f8
:0f027b00c2a4c2a3c2a20204d7c2a4c2a3d2a229
:10028a000204d7c2a4d2a3c2a20204d7e490e68a87
:10029a00f090e68bf090e6a0e020e1f990e740e0ec
:1002aa00f53524fe601a24fd600d24fb701bc2a7dd
:1002ba00d2a6d2a50204d7c2a7c2a6c2a50204d753
:0f02ca00c2a7c2a6d2a50204d7c2a7d2a6c2a5b8
:1002d9000204d7e490e68af090e68bf090e6a0e07d
:1002e90020e1f990e740e0f535120ef203580103d9
:1002f900500203480403400803700a03380c033012
:100309001003681403281803211e031d30036032eb
:0f031900000003d374ea800274aa751a01805e93
:1003280079017a017b09804679017a017b01803e57
:1003380079017a027b01803679027a037b01802e6b
:1003480079057a067b018026790b7a0c7b01801e61
:1003580079177a187b018016792f7a307b01800e05
:0e03680079777a787b01800679ef7af07b0155
:1003760090e040e9f0a3eaf0a3ebf0e4f51a74cac2
:0f03860090e601f08047e490e68af090e68bf075
:0f03950090e6a0e020e1f990e740e0600a9403d1
:0b03a4005006240a90e618f00204d76f
:0e03d30090e6f574fff090e080e090e6f3f025
:1003e10090e081e090e6c3f090e082e090e6c1f019
:1003f10090e083e090e6c2f090e085e090e6c0f006
:1004010090e086e090e6f4f075af07e51ab4010ad2
:1004110074e0f59a7487f59b800874e0f59a74008e
:10042100f59b759de4e4f59ef533f53490e67be0ac
:1004310090e67cf00534e534700205336480453381
:0e04410070ea0204d7e490e68af090e68bf0b1
:0f044f0090e6a0e020e1f990e740e0f535640188
:10045e007077751d01807290e6bae0752d00f52e4d
:10046e00a3e0fee4ee422d90e6bee0752f00f530df
:10047e00a3e0fee4ee422fe530452f604c90e6a05f
:0f048e00e020e1f9c3e5309440e52f94005008d9
:0e049d00852f31853032800675310075324072
:1004ab0090e7407401f0e490e68af090e68be53239
:1004bb00f0252ef52ee531352df52dc3e530953292
:0e04cb00f530e52f9531f52f80b0d322c322f6
:0f04d90090e6b9e070030205b514700302065ee9
:0f04e80024fe70030206f324fb70030205af1419
:0e04f70070030205a914700302059d14700322
:0f0505000205a32405600302075f1200464003ae
:1005140002076b90e6bbe024fe602c14604724fdc8
:0f052400601614603124067066e50c90e6b3f0a3
:0f053300e50d90e6b4f002076be51490e6b3f027
:0f054200e51590e6b4f002076be50e90e6b3f016
:0f055100e50f90e6b4f002076be51090e6b3f00b
:0e056000e51190e6b4f002076b90e6bae0fffa
:0f056e00121255aa06a9077b01ea494b600dee50
:10057d0090e6b3f0ef90e6b4f002076b90e6a0e0e2
:10058d004401f002076b90e6a0e04401f002076b16
:0f059d001212ef02076b12130102076b12104cc0
:0e05ac0002076b1212dd02076b1200484003bb
:1005ba0002076b90e6b8e0247f602b14603c2402ab
:1005ca006003020654a200e433ff25e0ffa203e41d
:1005da00334f90e740f0e4a3f090e68af090e68b80
:1005ea007402f002076be490e740f0a3f090e68a09
:1005fa00f090e68b7402f002076b90e6bce0547e42
:0f060a00ff7e00e0d3948040067c007d018004d9
:100619007c007d00ec4efeed4f2436f58274003ee1
:10062900f583e493ff3395e0feef24a1ffee34e672
:0e0639008f82f583e0540190e740f0e4a3f0d7
:1006470090e68af090e68b7402f002076b90e6a0c2
:0f065700e04401f002076b12004e400302076bf4
:0f06660090e6b8e024fe601d2402600302076bdb
:1006750090e6bae0b40105c20002076b90e6a0e07f
:100685004401f002076b90e6bae0705990e6bce0d1
:0f069500547eff7e00e0d3948040067c007d0100
:0f06a40080047c007d00ec4efeed4f2436f58285
:1006b30074003ef583e493ff3395e0feef24a1ff3e
:0f06c300ee34e68f82f583e054fef090e6bce063
:1006d2005480ff131313541fffe0540f2f90e6832f
:0f06e200f0e04420f002076b90e6a0e04401f046
:0f06f1008078120050507390e6b8e024fe60202d
:0f0700002402706790e6bae0b40104d200805c76
:0f070f0090e6bae06402605490e6a0e04401f086
:0f071e00804b90e6bce0547eff7e00e0d39480d9
:10072d0040067c007d0180047c007d00ec4efeedda
:10073d004f2436f58274003ef583e493ff3395e044
:10074d00feef24a1ffee34e68f82f583e04401f045
:0e075d00800c120056500790e6a0e04401f018
:10076b0090e6a0e04480f022c204c200c203c201a2
:10077b00c202750808750907120cb8c2c975cdf805
:0f078b0075cc40d2cad2adc287c2a0d2a17e0e19
:0f079a007f008e0c8f0d75140e751512750a0edb
:0f07a900750b1c75120e75133c75160e75175ccb
:1007b80090e680e030e70e850a0e850b0f85121053
:0e07c800851311800c85120e85130f850a1003
:0e07d600850b11ee54e070030208f775290040
:1007e400752a807e0e7f008e2b8f2cc374909fff02
:0f07f400740e9ecf2402cf3400fee48f288e2790
:10080300f526f525f524f523f522f521af28ae27a6
:10081300ad26ac25ab24aa23a922a821c3120ee13d
:10082300502ae52a2524f582e5293523f58374cd5d
:10083300f0e4faf9f8e5242401f524ea3523f52355
:0f084300e93522f522e83521f52180c0e4f524be
:10085200f523f522f521af28ae27ad26ac25ab2432
:10086200aa23a922a821c3120ee15037e52c252480
:10087200f582e52b3523f583e0ffe52a2524f58271
:10088200e5293523f583eff0e4faf9f8e5242401ac
:0f089200f524ea3523f523e93522f522e835214f
:0f08a100f52180b385290c852a0d74002480ff72
:1008b000740e34fffec3e5159ff515e5149ef5147f
:0f08c000c3e50f9ff50fe50e9ef50ec3e5119fe3
:1008cf00f511e5109ef510c3e50b9ff50be50a9e9c
:1008df00f50ac3e5139ff513e5129ef512c3e5174d
:1008ef009ff517e5169ef516d2e843d82090e668d7
:1008ff00e04409f090e65ce0443df0d2af90e68032
:10090f00e020e105d2061211fa90e680e054f7f0ec
:10091f00538ef8c2043001051204d9c201300429e4
:10092f001200285024c20412000320001690e68201
:10093f00e030e704e020e1ef90e682e030e604e00b
:10094f0020e0e4121229120040120b7b80c722c153
:10095f00056080e0000e0301110101300701000264
:10096f000100001100fffefffefffeffff00091256
:10097f0012002d123f0803010101010107010204ba
:10098f000100000000fffcfffefffeffff09091240
:10099f0012002d363f171801010101010700020156
:1009af000000001000fffbfffbfbfbfbfb0009122d
:1009bf0012002d123f0803013f0101010701020040
:1009cf000100000000fffdffffffffffff090912fd
:1009df0012002d363f6080e087010201013f0101c7
:1009ef0007000002000100000007020207070707c7
:1009ff0007000000003f00003f03013f010101011c
:100a0f000702020500000000000507070707070798
:100a1f000700003f000000003f010180010101bffe
:100a2f00070202030202021100ffffffffffffff99
:100a3f00ff00091212002d123f01010101010101f6
:100a4f00070000000000000000070707070707075f
:100a5f0007000000000000003f47e080c000000fcb
:100a6f00ca1e0000c0e0c083c082c085c084c0869b
:100a7f00758600c0d075d000c000c001c002c00391
:0e0a8f00c006c00790e678e030e2067541062a
:100a9d00020b5d90e678e020e10ce5416402600612
:0f0aad00754107020b5de54124fe605f14603662
:100abc0024fe7003020b4e24fc7003020b5a240814
:0f0acc006003020b5dab3daa3ea93faf40054062
:100adb008f82758300120e9290e679f0e540653cab
:0f0aeb007070754105806b90e679e0ab3daa3ed7
:0f0afa00a93fae408e82758300120ebf75410278
:0f0b0900e53c6401704e90e678e04420f08045b2
:100b1800e53c24feb5400790e678e04420f0e53c4b
:0e0b280014b5400a90e678e04440f0754100b4
:0e0b360090e679e0ab3daa3ea93fae408e822c
:100b4400758300120ebf0540800f90e678e04440a4
:100b5400f075410080037541005391dfd007d00642
:100b6400d003d002d001d000d0d0d086d084d0859c
:100b7400d082d083d0e032e51d6401702b751d0254
:0f0b840090e6f574fff090e6047480f000000036
:0f0b93007482f0000000e4f0000000fffe000f8d
:0f0ba200bf00010ebe03f7bfe8f4e5bb30e72547
:0e0bb10090e6f4e030e01ee5ab20e019e5bb75
:100bbf0030e7fb90e6d07428f0000000e490e6d117
:0f0bcf00f000000075bb0422121162e54124fa08
:100bde00600e146006240770f3d322e4f541d3228d
:0c0bee00e4f541d322323232323232328e
:100c0000021281000212c7000212b1000212990002
:100c1000021089000210c00002002a000200320007
:100c20000200420002004a0002005200020bf300e0
:100c3000020bf400020bf500020bf600020bf700aa
:100c4000020bf80002003200020bf900020dfa005c
:100c5000020dfb00020dfc00020dfd00020dfe0066
:100c6000020dff00020032000200320002003200da
:100c700002131100021312000213130002131400d6
:100c800002131500021316000213170002131800b6
:100c90000213190002131a0002131b0002131c0096
:100ca00002131d0002131e0002131f000213200076
:0e0cb000021321000213220090e6007410f0df
:100cbe00120f1800000090e61274d8f0000000e445
:100cce0090e613f000000090e6147400f0000000af
:100cde00e490e615f000000090e6407403f000008a
:100cee000090e6047480f00000007482f0000000b2
:100cfe00e4f000000090e61804f00000007409f023
:100d0e0000000090e6d27401f0000000e490e6715d
:0f0d1e00f075b4ff90e670f075b280c2a4c2a366
:0f0d2d00c2a2c2a7c2a6c2a5f51df51a121309cc
:080d3c0090e67ae04401f02288
:100d5200787fe4f6d8fd758141020d99020773e4ac
:0f0d620093a3f8e493a34003f68001f208dff4b3
:100d71008029e493a3f85407240cc8c333c4540f47
:100d81004420c8834004f456800146f6dfe4800b1a
:0f0d9100010204081020408090095ee47e019367
:0f0da00060bca3ff543f30e509541ffee493a34a
:100daf0060010ecf54c025e060a840b8e493a3fac9
:100dbf00e493a3f8e493a3c8c582c8cac583caf055
:0f0dcf00a3c8c582c8cac583cadfe9dee780bef4
:100dde001211c8e54124fa600e146006240770f360
:100dee00d322e4f541d322e4f541d322323232321a
:100dfe0032321201000200000040b50422600000f1
:100e0e00010200010a060002000000400100090272
:100e1e00190001010080320904000001ff000000ea
:100e2e00070582050014010705860200020009026b
:100e3e00190001010080320904000004ff000000c7
:100e4e0007058201ff030107058602400000040327
:100e5e0009040e034f0044004d0020002000200026
:100e6e002203480061006e00740065006b004400b0
:100e7e0053004f0036003000320032004200450071
:0f0e8e0020000000bb010ce58229f582e5833ac4
:100e9d00f583e0225006e92582f8e622bbfe06e93d
:100ead002582f8e222e58229f582e5833af583e48d
:100ebd009322f8bb010de58229f582e5833af5838e
:0f0ecd00e8f0225006e92582c8f622bbfe05e9af
:0f0edc002582c8f222eb9ff5f0ea9e42f0e99dd5
:100eeb0042f0e89c45f022d083d082f8e493701254
:100efb00740193700da3a393f8740193f582888307
:100f0b00e4737402936860efa3a3a380df90e60100
:100f1b0074caf090e6f574fff090e080e090e6f391
:100f2b00f090e081e090e6c3f090e082e090e6c1c3
:100f3b00f090e083e090e6c2f090e085e090e6c0b0
:100f4b00f090e086e090e6f4f075af0774e0f59a68
:0f0f5b007400f59b759de4e4f59eff90e67be046
:100f6a0090e67cf00fbf80f422ab07aa06ac05e43a
:0f0f7a00fde51c6010ea7e000dee2407f582e411
:100f890034e1f583eaf0ebae050d74072ef582e442
:0f0f990034e1f583ebf0af050d74072ff582e41b
:0f0fa80034e1f583ecf07ae17b07af19120dde2f
:100fb700af191210f7228e368f378d388a398b3a50
:0f0fc700e4fde51c6012e536ff7e000dee240709
:100fd600f582e434e1f583eff0e537ae050d7407ed
:0f0fe6002ef582e434e1f583e537f07ae17b07fd
:100ff500af19120ddeab3aaa39ad38af19120bd7be
:0f100500228e2d8f2e90e600e054187012e52eeb
:101014002401ffe4352dc313f52def13f52e8015b0
:1010240090e600e05418ffbf100be52e25e0f52ee6
:10103400e52d33f52de52e152eae2d7002152d4e12
:10104400600512001780ee2290e680e030e7180079
:10105400000090e6207404f0000000e490e621f023
:10106400000000d20580160000740390e620f00012
:10107400000090e62174fff0000000c20590e6ba7b
:0f108400e0f51bd322c0e0c083c08290e680e07d
:0f10930030e70e850a0e850b0f8512108513119d
:0e10a200800c85120e85130f850a10850b1128
:1010b0005391ef90e65d7410f0d082d083d0e0328f
:1010c000c0e0c083c08290e680e030e70e850a0e63
:0e10d000850b0f851210851311800c85120ef2
:0f10de0085130f850a10850b115391ef90e65d76
:0e10ed007420f0d082d083d0e03290e678e01c
:0f10fb0020e6f9c2e990e678e04480f0ef25e0c6
:0f110a0090e679f090e678e030e0f990e678e052
:0e1119004440f090e678e020e6f990e678e0b9
:1011270030e1d6d2e9228e368f378d388a398b3a1d
:10113700e4f53be53bc3953850200537e537ae3638
:0f1147007002053614ffe53a253bf582e4353991
:0e115600f583e0fd120f73053b80d922a90737
:0f11640090e678e020e6f9e541702590e678e026
:101173004480f0e925e0440190e679f08d3caf032b
:10118300a907753d018a3e893fe4f540754103d3c4
:0f11930022c322c0e0b287e509150970021508d2
:0f11a200e5094508701575080475091f30020628
:0f11b100b2a1d2a08004b2a0d2a1c20275cdf823
:0e11c00075cc40c2cfd0e032a90790e678e0af
:0f11ce0020e6f9e541702390e678e04480f0e9ef
:0f11dd0025e090e679f08d3caf03a907753d0141
:0e11ec008a3e893fe4f540754101d322c322bb
:1011fa0030060990e680e0440af0800790e680e035
:10120a004408f07fdc7e0512100690e65d74fff05c
:0f121a0090e65ff05391ef90e680e054f7f022fa
:0f12290090e682e030e004e020e60b90e682e001
:1012380030e119e030e71590e680e04401f07f14d2
:0f1248007e0012100690e680e054fef022a90707
:10125700ae16af178f828e83a3e064037017ad01bc
:1012670019ed7001228f828e83e07c002ffdec3e0a
:10127700feaf0580df7e007f0022c0e0c083c08212
:0f128700d2015391ef90e65d7401f0d082d083d5
:0e129600d0e032c0e0c083c082d2045391ef9a
:0f12a40090e65d7408f0d082d083d0e032c0e0d5
:0f12b300c083c0825391ef90e65d7404f0d08247
:0e12c200d083d0e032c0e0c083c0825391eff1
:1012d00090e65d7402f0d082d083d0e03290e74097
:0f12e000e51bf0e490e68af090e68b04f0d32251
:1012ef0090e740e518f0e490e68af090e68b04f082
:0f12ff00d32290e6bae0f518d322e4f541d2e904
:10130e00d2af2232323232323232323232323232a2
:05131e003232323232d0
:017f920000ee
:01e600000019
:00000001ff
