:040000000201B9320E
:01000B0032C2
:0100130032BA
:01001B0032B2
:0100230032AA
:03002B00020424A8
:0300330002033590
:01003B003292
:01004300328A
:01004B003282
:01005300327A
:01005B003272
:01006300326A
:03006B0002033855
:03007300020C5E1E
:03007B0002082E4A
:030083000203FD78
:03008B0002035F0E
:030093000203AEB7
:03009B0002082B2D
:0300A300020C96B6
:0300AB00020C97AD
:0300B300020C98A4
:0300BB00020C9B99
:0300C300020C42EA
:0300CB00020C5FC5
:0300D300020C60BC
:0300DB00020C62B2
:0300E300020830E0
:0300EB00020D4CB7
:0300F30002082CD4
:0300FB0002082DCB
:0301030002082FC0
:03010B00020831B6
:03011300020832AD
:03011B00020CF7DC
:03012300020C9437
:03012B00020C992A
:03013300020C9C1F
:03013B00020C9E15
:03014300020C9516
:03014B00020C9A09
:03015300020C9DFE
:03015B00020C9FF4
:03016300020CF695
:03016B00020C6320
:03017300020C8EED
:03017B00020C90E3
:03018300020C92D9
:03018B00020C8DD6
:03019300020C8FCC
:03019B00020C91C2
:0301A300020C93B8
:0301AB00020C61E2
:0301B300020C41FA
:09021200E4F508F509C200C2017F
:030230000201B612
:0301B6000202330F
:2002330090E600E0FF74E75FF01207E7E500D2E890E668E0FF74084FF090E65CE0FF74016F
:200253004FF0E0FF74104FF0E0FF74204FF0E0FF74084FF0D2DDD2AF75CA0C75CBFE75C868
:2002730000D2ADD2CA90E680E0FF20E11890E680E0FF740A4FF09005DC120CA090E680E0CB
:20029300FF74F75FF090E671E4F090E670F075B4FF75B28012082A100002800312083310FC
:2002B300010280F090E682E0FF74C04FF090E6817401F043870100000000000000E51170E1
:2002D3002090E682E0FF30E60890E682E0FF20E0D390E682E0FF30E70890E682E0FF20E17E
:2002F300C390E682E0FF30E60890E682E0FF20E01090E682E0FF30E79B90E682E0FF30E1DB
:2003130093900005120CA090E680E0FF74014FF090000F120CA090E680E0FF74FE5FF00266
:2003330002A7C2DC32C0E0C082C083C007C0D075D000D200AF9174EF5FF59190E65D7401CE
:20035300F0D0D0D007D083D082D0E032C021C0E0C0F0C082C083C007C006C005C004C0030D
:20037300C002C001C000C0D075D000758200120B2DAF9174EF5FF59190E65D7410F0D0D0A2
:20039300D000D001D002D003D004D005D006D007D083D082D0F0D0E0D02132C021C0E0C035
:2003B300F0C082C083C007C006C005C004C003C002C001C000C0D075D000758201120B2D82
:2003D300AF9174EF5FF59190E65D7420F0D0D0D000D001D002D003D004D005D006D007D01F
:2003F30083D082D0F0D0E0D02132C0E0C082C083C007C0D075D000D201AF9174EF5FF59166
:2004130090E65D7408F0D0D0D007D083D082D0E032C0E0C0D0B287E50845096013150874E4
:17043300FFB508021509E50845097004D2A0D2A1C2CFD0D0D0E0322F
:03021B00750A0061
:20044A00AF827401B5160280157402B5160280127405B51602800F740AB51612800C7E4833
:20046A0080107E24800C7E0080087E6C800475820022EF60047FE080027F1CEFF4FDE5A0F3
:20048A005205EF5E4DF5A075820122850D16751700905DC0120D14AE82AF83C3E50B9EE506
:2004AA000C9F400A90E640E0FF747F5FF02290E640E0FF74804FF022AF82BF01028003BF25
:2004CA00021674072FFE90E618F090E61AEEF08F0D12049575820122758200227407250D3F
:2004EA00FF90E6F574FFF0000000E5BB30E7FB90E6047480F000000090E618E4F0000000B3
:20050A0090E61AE4F000000090E6047402F000000090E6047406F000000090E618EFF0003C
:20052A00000090E61AEFF000000090E604E4F02290E6F574FFF0000000E50A700790E648E0
:20054A007406F02290E6487402F0221204E600000090E6D07428F000000090E6D1E4F0E5F1
:20056A000A700575BB06800375BB04E4F508F509D2A0C2A122AF8290E680E0FE30E7067D90
:20058A001C7E3D80047DA67E3DEF75F010A42416FBE435F0FCEB2DFDEC3EFC7E80EFF50AAF
:2005AA00703590E612E4F090E61474E0F090E6E27401F08D828C838EF0120CF890E625F068
:2005CA0074012DFAE43CFB8E078A828B838FF0120CF890E624F02290E61274D8F090E6141C
:2005EA00E4F090E6D204F08D828C838EF0120CF8FF90E621F00DBD00010C8D828C838EF036
:20060A00120CF8FF90E62074075FF08D828C838EF0120CF8C423541F90E64004F00204950A
:20062A00AF827E00EE75F009A4FCADF02451F582ED340DF583E493FBB5070280080EBE0C46
:20064A00E375820022EC2451FCED340DFD8C828D83A3E493F50BA3E493F50CC005C004121E
:20066A000495D004D00574082CF582E43DF583E49390E601F075AF07759DE4759E008C8256
:20068A008D83A3A3A3E49390E67CF08C828D83A3A3A3A3E49390E67CF07401F0E4F0F0F0E2
:2006AA00F0F08C828D83A3A3A3A3A39390E67CF074062CF582E43DF583E49390E67CF0740B
:2006CA0001F0E4F0F0F0F0F074072CF582E43DF583E49390E67CF07444F0F0E4F0F0F0F03F
:2006EA00F0F0F0F0F0F0F0F0F07F0090E67CE4F00FBF600040F57582012275820022AD16E2
:20070A00AE17AF188D828E838FF0E50A120C4375820122E582FF7006850E8212057F7582BC
:20072A0001227582002275820122AF82C00712053AD007C2A0D2A17508E8750903BFE002DD
:20074A008017BFE1028012BFE2028031BFE302804ABFE40280650207E390E68AE4F090E642
:20076A008BF090E6A0E0FE20E1F8EF2420FF90E740E0F5168F8212044A7582012290E68AA8
:20078A00E4F090E68BF090E6A0E0FF20E1F890E740E0F58212062A7582012290E68AE4F05E
:2007AA0090E68BF090E6A0E0FF20E1F890E740E0FFBF01031205557582012290E68AE4F09D
:2007CA0090E68BF090E6A0E0FF20E1F890E740E0F5821204C2758201227582002290E6138E
:2007EA00E4F090E615F090E6C2F090E6C37480F090E6C0E4F090E6F4F012053A75160175A5
:20080A00820012044A75160175820112044A75820112062A7582021204C275820002057F80
:01082A0022AB
:200D51003080BB8000030000EA1E30758000030000AA18C05D0100020140CA10803E0101A7
:200D7100020040CA0CE02E0201020040CA08401F0302020040CA04A00F0605020040CA02E9
:200D9100D0070C0B020040CA01E8031817020040CA32F401302F020040CA14C800787702C2
:0C0DB1000040CA0A6400F0EF020040CAD3
:203D000012010002FFFFFF40B50422600000010200010A060002000000400100090289002B
:203D200001010080370904000001FF000000070586020002000904000101FF00010007050C
:203D400082010014010904000201FF00010007058201000C010904000301FF000100070502
:203D600082010004010904000401FF000100070582010004020904000501FF0001000705F5
:203D800082010004030904000601FF000100070582010004040904000701FF0001000705CD
:053DA000820100020495
:203DA6000902390002010080370904000001FF000000070586024000000904000101FF0010
:193DC600010007058201FF03010904000201FF00010007058201000201AF
:203DE0000403090408034F0044004D002003480061006E00740065006B00440053004F0060
:0E3E0000360030003200320042004500000063
:01082B00329A
:01082C003299
:01082D003298
:01082E003297
:01082F003296
:010830003295
:010831003294
:010832003293
:0601E800E478FFF6D8FDEB
:12021E007510007511007512A675133D75141C75153D65
:2008330090E6B9E0FF24F45003020939EF240A83F582EF241083F583E473657B3991393940
:20085300A739B7CEE61A0808090809090809080808091209B3E582600302094F90E6A0E0D3
:20087300FF74014FF002094F120A40E582600302094F90E6A0E0FF74014FF002094F120AB9
:20089300ACE582600302094F90E6A0E0FF74014FF002094F120704E582600302094F120B14
:2008B3005802094F12072CAF8290E740EFF090E68AE4F090E68B04F002094F90E6BAE0F53F
:2008D30082120730E582707490E6A0E0FF74014FF0806990E6BCE0FF75160F751700751899
:2008F300408F82120708E582700B90E6A0E0FF74014FF0804790E740E50FF090E68AE4F0B2
:2009130090E68B04F0803590E6BCE0FF90E6BAE0F50E8F8212071DE582702190E6A0E0FFC2
:2009330074014FF0801690E6B9E0F582120734E582700990E6A0E0FF74014FF090E6A0E008
:20095300FF74804FF022AF828F0653067FEE24F750030209AFEE240A83F582EE240D83F5CF
:2009730083E473888C9FAFA3AFA7AFAB09090909090909090990E6A022EF30E7067EA27FA1
:20099300E680047EA17FE68E828F832290E6A32290E6A42290E6A52290E6A622900000226E
:2009B30090E6B8E0FFBF8002801FBF81028005BF8273803490E740E4F090E741F090E68AD5
:2009D300F090E68B7402F08060E51125E0FFE510420790E740EFF090E741E4F090E68AF083
:2009F30090E68B7402F0804190E6BCE0F582120959AE82AF838E048F05EE4F7003F58222EE
:200A13008C828D83E0FC30E0047F0180027F0090E740EFF090E741E4F090E68AF090E68B21
:200A33007402F08004758200227582012290E6B8E0FF6005BF0255801190E6BAE0FFBF019E
:200A530005751100804F7582002290E6BAE0703890E6BCE0F582120959AE82AF83E0FD53C9
:200A730005FE8E828F83EDF090E6BCE0FF53070F90E6BCE05480C423541FFE90E6832FF091
:200A9300E0FF74204FF0800D7582002290E6B9E0F5820207347582012290E6B8E0FF60059C
:200AB300BF026A801B90E6BAE0FFBF0202806790E6BAE0FFBF0105751101805A7582002256
:200AD30090E6BAE0704390E6BCE0F582120959AE82AF83EE4F7003F582228E828F83E0FD99
:200AF3004305018E828F83EDF090E6BCE0FF53070F90E6BCE05480C423541FFE90E6832FBB
:200B1300F0E0FF74204FF0800D7582002290E6B9E0F58202073475820122AF82D20210AFD9
:200B330002C202EF600E75121C75133D7514A675153D800C7512A675133D75141C75153D37
:200B5300A20292AF2290E6BBE0FFBF01028019BF02028029BF03028033BF0603020C13BF85
:200B73000703020C28020C377E007F3D8F0690E6B3EEF07E007F3D90E6B4EEF022AF139051
:200B9300E6B3EFF0AE1290E6B4EEF0227DE07E3D7F8090E6BAE0F5167B008B020BEAB516E6
:200BB3000280428D008E018F028D828E838FF0120CF828F8E439F9880589068A0774012D77
:200BD300F9E43EFA8F0489828A838CF0120CF8F9B9030280067D007E007F00ED4E6006C395
:200BF300E5169B50B5ED4E600D8E0790E6B3EFF090E6B4EDF02290E6A0E0FF74014FF0220E
:200C13007E127F3D8F0690E6B3EEF07E127F3D90E6B4EEF022AF1590E6B3EFF0AE1490E65F
:0E0C3300B4EEF02290E6A0E0FF74014FF02234
:2001C6007900E94400601B7A00900DBD780075923CE493F2A308B800020592D9F4DAF275F6
:0201E60092FF86
:010C41003280
:010C4200327F
:1B0C430020F71130F6138883A88220F509F6A8837583002280FEF280F5F022B0
:010C5E003263
:010C5F003262
:010C60003261
:010C61003260
:010C6200325F
:03004300023F0079
:203F000002033800020C5E0002082E000203FD0002035F000203AE0002082B00020C9500CF
:203F2000020C9600020C9700020C9800020C9B00020C4200020C5F00020C6000020C62004E
:203F400002083000020C9500020D4C0002082C0002082D0002082F0002083100020832000C
:203F6000020CF700020C9500020C9500020C9500020C9400020C9900020C9C00020C9E00B4
:203F8000020C9A00020C9D00020C9F00020CF600020C6300020C8E00020C9000020C9200D2
:183FA000020C8D00020C8F00020C9100020C9300020C6100020C4100D3
:010C6300325E
:200C64007A10E4FBFCE58225E0F582E58333F583EB33FBEC33FCEB9516F5F0EC9517400688
:090C8400FCABF0438201DADD2231
:010C8D003234
:2001EE007800E84400600A790075923CE4F309D8FC7800E84400600C7900903C00E4F0A3A7
:04020E00D8FCD9FA45
:010C8E003233
:010C8F003232
:010C90003231
:010C91003230
:010C9200322F
:010C9300322E
:010C9400322D
:010C9500322C
:010C9600322B
:010C9700322A
:010C98003229
:010C99003228
:010C9A003227
:010C9B003226
:010C9C003225
:010C9D003224
:010C9E003223
:010C9F003222
:200CA000AE82AF8390E600E05418C423541FFD70057CB1FD801C90E600E05418C423541F62
:200CC000FBBB01067A617B0180047AC27B028A048B058C168D17151674FFB516021517E5E3
:160CE00016451770F1EE24FFFAEF34FFFB8A068B07EA4B70DD223D
:010CF60032CB
:010CF70032CA
:0D01B900758121120D4DE58260030201B633
:1C0CF80020F71430F6148883A88220F507E6A88375830022E280F7E49322E0220B
:200D1400C2D5E58330E70DD2D5E4C39582F582E49583F583E51730E70DB2D5E4C39516F55E
:180D340016E49517F517120C6430D50BE4C39582F582E49583F5832298
:010D4C003274
:040D4D007582002289
:00000001FF
