:040000000201B9320E
:01000B0032C2
:0100130032BA
:01001B0032B2
:0100230032AA
:03002B0002041AB2
:0300330002032B9A
:01003B003292
:01004300328A
:01004B003282
:01005300327A
:01005B003272
:01006300326A
:03006B0002032E5F
:03007300020C3349
:03007B0002080B6D
:030083000203F382
:03008B0002035518
:030093000203A4C1
:03009B0002080850
:0300A300020C420A
:0300AB00020C4301
:0300B300020C44F8
:0300BB00020C47ED
:0300C300020C1715
:0300CB00020C34F0
:0300D300020C35E7
:0300DB00020C37DD
:0300E30002080D03
:0300EB00020CC044
:0300F300020809F7
:0300FB0002080AEE
:0301030002080CE3
:03010B0002080ED9
:0301130002080FD0
:03011B00020CA330
:03012300020C408B
:03012B00020C457E
:03013300020C4873
:03013B00020C4A69
:03014300020C416A
:03014B00020C465D
:03015300020C4952
:03015B00020C4B48
:03016300020CA2E9
:03016B00020C384B
:03017300020C3A41
:03017B00020C3C37
:03018300020C3E2D
:03018B00020C392A
:03019300020C3B20
:03019B00020C3D16
:0301A300020C3F0C
:0301AB00020C360D
:0301B300020C1625
:09021200E4F508F509C200C2017F
:030230000201B612
:0301B6000202330F
:2002330090E600E054E7F01207C4E500D2E890E668E04408F090E65CE04401F090E65CE01B
:200253004410F090E65CE04420F090E65CE04408F0D2DDD2AF75CA0C75CBFE75C800D2ADDE
:20027300D2CA90E680E0FF20E11590E680E0440AF09005DC120C4C90E680E0FF54F7F09055
:20029300E671E4F090E670F075B4FF75B280120807100002800312081010010280F090E6A2
:2002B30082E0FF44C0F090E6817401F043870100000000000000E50E702090E682E0FF3025
:2002D300E60890E682E0FF20E0D490E682E0FF30E70890E682E0FF20E1C490E682E0FF30D9
:2002F300E60890E682E0FF20E01090E682E0FF30E79C90E682E0FF30E194900005120C4C11
:2003130090E680E04401F090000F120C4C90E680E0FF54FEF00202A1C2DC32C0E0C082C088
:2003330083C007C0D075D000D200AF9174EF5FF59190E65D7401F0D0D0D007D083D082D00D
:20035300E032C021C0E0C0F0C082C083C007C006C005C004C003C002C001C000C0D075D0D1
:2003730000758200120B06AF9174EF5FF59190E65D7410F0D0D0D000D001D002D003D004C7
:20039300D005D006D007D083D082D0F0D0E0D02132C021C0E0C0F0C082C083C007C006C08D
:2003B30005C004C003C002C001C000C0D075D000758201120B06AF9174EF5FF59190E65D10
:2003D3007420F0D0D0D000D001D002D003D004D005D006D007D083D082D0F0D0E0D0213212
:2003F300C0E0C082C083C007C0D075D000D201AF9174EF5FF59190E65D7408F0D0D0D00718
:20041300D083D082D0E032C0E0C0D0A287B392029287E50845096013150874FFB508021577
:1204330009E50845097004D2A0D2A1C2CFD0D0D0E03207
:03021B00750A0061
:20044500AF827401B5130280157402B5130280127405B51302800F740AB51312800C7E4844
:2004650080107E24800C7E0080087E6C800475820022EF60047FE080027F1CEFF4FDE5A0F8
:200485005205EF5E4DF5A075820122AF82BF01028003BF021174072FFF90E618F090E61AB8
:2004A500EFF0758201227582002290E6F574FFF000000090E6047480F000000090E604740B
:2004C50082F000000090E6047486F000000090E604E4F02290E6F574FFF0000000E50A70A4
:2004E5000790E6487406F02290E6487402F0221204AF7EE87F031EBEFF011FEE4F70F7E52F
:20050500BB30E7FB00000090E6D07428F000000090E6D1E4F0E50A700575BB06800375BBCF
:2005250004E4F508F509D2A0C2A122AF8290E680E0FE30E7067D1C7E3D80047DA67E3DEF15
:2005450075F010A42416FBE435F0FCEB2DFDEC3EFC7E80EFF50A703590E612E4F090E61491
:2005650074E0F090E6E27401F08D828C838EF0120CA490E625F074012DFAE43CFB8E078AB6
:20058500828B838FF0120CA490E624F02290E61274D8F090E614E4F090E6D27401F08D82FB
:2005A5008C838EF0120CA4FF90E621F00DBD00010C8D828C838EF0120CA4FF90E62074071C
:2005C5005FF08D828C838EF0120CA4C423541F90E64004F022AF827E00EE75F007A4FCADED
:2005E500F024C5F582ED340CF583E493FBB5070280080EBE0CE375820022EC24C5FCED3483
:200605000CFD74062CF582E43DF583E49390E601F075AF07759DE4759E008C828D83A3E45F
:200625009390E67CF08C828D83A3A3E49390E67CF090E67C7401F0E4F090E67CF090E67C84
:20064500F090E67CF090E67CE4F08C828D83A3A3A3E49390E67CF08C828D83A3A3A3A3E40F
:200665009390E67CF090E67C7401F0E4F090E67CF090E67CF090E67CF090E67CE4F08C825B
:200685008D83A3A3A3A3A3E49390E67CF090E67C7444F07444F0E4F090E67CF090E67CF0E3
:2006A50090E67CF090E67CE4F090E67CF090E67CF090E67CF090E67CE4F090E67CF090E6C9
:2006C5007CF090E67CF090E67CE4F07F0090E67CE4F00FBF600040F5758201227582002226
:2006E500AD13AE14AF158D828E838FF0E50A120C1875820122E582FF7006850B821205309C
:20070500758201227582002275820122AF82C0071204D9D007C2A0D2A17508E8750903BF4F
:20072500E0028017BFE1028012BFE2028031BFE302804ABFE40280650207C090E68AE4F01E
:2007450090E68BF090E6A0E0FE20E1F8EF2420FF90E740E0F5138F821204457582012290CF
:20076500E68AE4F090E68BF090E6A0E0FF20E1F890E740E0F5821205DA7582012290E68A38
:20078500E4F090E68BF090E6A0E0FF20E1F890E740E0FFBF01031204F47582012290E68A24
:2007A500E4F090E68BF090E6A0E0FF20E1F890E740E0F5821204907582012275820022900A
:2007C500E613E4F090E615F090E6C2F090E6C37480F090E6C0E4F090E6F4F01204D97513AC
:2007E500017582001204457513017582011204457582011205DA7582021204907582000244
:0308050005302299
:200CC500308000030000EA1E8000030000AA180100020140CA100101020040CA0C020102D2
:200CE5000040CA080302020040CA040605020040CA020C0B020040CA011817020040CA321E
:140D0500302F020040CA147877020040CA0AF0EF020040CA6B
:203D000012010002FFFFFF40B50422600000010200010A060002000000400100090289002B
:203D200001010080370904000001FF000000070586020002000904000101FF00010007050C
:203D400082010014010904000201FF00010007058201000C010904000301FF000100070502
:203D600082010004010904000401FF000100070582010004020904000501FF0001000705F5
:203D800082010004030904000601FF000100070582010004040904000701FF0001000705CD
:053DA000820100020495
:203DA6000902390002010080370904000001FF000000070586024000000904000101FF0010
:193DC600010007058201FF03010904000201FF00010007058201000201AF
:203DE0000403090408034F0044004D002003480061006E00740065006B00440053004F0060
:0E3E0000360030003200320042004500000063
:0108080032BD
:0108090032BC
:01080A0032BB
:01080B0032BA
:01080C0032B9
:01080D0032B8
:01080E0032B7
:01080F0032B6
:0601E800E478FFF6D8FDEB
:12021E00750D00750E00750FA675103D75111C75123D77
:2008100090E6B9E0FF24F45003020915EF240A83F582EF241083F583E4734257156C15155F
:20083000811591A9C3F708080908090908090808080812098CE582600302092A90E6A0E01E
:20085000FF4401F002092A120A15E582600302092A90E6A0E0FF4401F002092A120A83E50C
:2008700082600302092A90E6A0E0FF4401F002092A1206E1E582600302092A120B3102099E
:200890002A120709AF8290E740EFF090E68AE4F090E68B7401F002092A90E6BAE0F582122D
:2008B000070DE582600302092A90E6A0E0FF4401F0806790E6BCE0FF75130C75140075154C
:2008D000408F821206E5E582700A90E6A0E0FF4401F0804690E740E50CF090E68AE4F090ED
:2008F000E68B7401F0803390E6BCE0FF90E6BAE0F50B8F821206FAE582701F90E6A0E0FF30
:200910004401F0801590E6B9E0F582120711E582700890E6A0E0FF4401F090E6A0E044808A
:20093000F022AF828F0653067FEE24F75003020988EE240A83F582EE240D83F583E4736120
:200950006578887C8880888409090909090909090990E6A022EF30E7067EA27FE680047E76
:20097000A17FE68E828F832290E6A32290E6A42290E6A52290E6A6229000002290E6B8E06B
:20099000FFBF8002801FBF81028005BF826F803490E740E4F090E741F090E68AF090E68B19
:2009B0007402F0805CE50E25E0FFE50D420790E740EFF090E741E4F090E68AF090E68B742C
:2009D00002F0803D90E6BCE0F582120932AE82AF83EE4F7003F582228E828F83E0FE30E0C7
:2009F000047F0180027F0090E740EFF090E741E4F090E68AF090E68B7402F080047582006E
:200A1000227582012290E6B8E0FF6005BF0257801190E6BAE0FFBF0105750E008051758250
:200A3000002290E6BAE0703A90E6BCE0F582120932AE82AF83E0FD5305FE8E828F83EDF060
:200A500090E6BCE0FF53070F90E6BCE05480C423541FFE90E6832FF090E683E0FF4420F08A
:200A7000800D7582002290E6B9E0F5820207117582012290E6B8E0FF6005BF026C801B903C
:200A9000E6BAE0FFBF0202806990E6BAE0FFBF0105750E01805C7582002290E6BAE0704509
:200AB00090E6BCE0F582120932AE82AF83EE4F7003F582228E828F83E0FD4305018E828FBE
:200AD00083EDF090E6BCE0FF53070F90E6BCE05480C423541FFE90E6832FF090E683E0FFFE
:200AF0004420F0800D7582002290E6B9E0F58202071175820122AF82D20310AF02C203EFB7
:200B1000600E750F1C75103D7511A675123D800C750FA675103D75111C75123DA20392AF41
:200B30002290E6BBE0FFBF01028019BF02028029BF03028033BF0603020BEABF0703020BA0
:200B5000FF020C0E7E007F3D8F0690E6B3EEF07E007F3D90E6B4EEF022AF1090E6B3EFF069
:200B7000AE0F90E6B4EEF0227EE07D3D7F8090E6BAE0F5137B008B020BEAB5130280428E38
:200B9000008D018F028E828D838FF0120CA428F8E439F9880689058A0774012EF9E43DFA2B
:200BB0008F0489828A838CF0120CA4F9B9030280067E007D007F00EE4D6006C3E5139B503E
:200BD000B5EE4D600D8D0790E6B3EFF090E6B4EEF02290E6A0E04401F0227E127F3D8F06B4
:200BF00090E6B3EEF07E127F3D90E6B4EEF022AF1290E6B3EFF0AE1190E6B4EEF02290E640
:060C1000A0E04401F02207
:2001C6007900E94400601B7A00900D19780075923CE493F2A308B800020592D9F4DAF2759A
:0201E60092FF86
:010C160032AB
:010C170032AA
:1B0C180020F71130F6138883A88220F509F6A8837583002280FEF280F5F022DB
:010C3300328E
:010C3400328D
:010C3500328C
:010C3600328B
:010C3700328A
:03004300023F0079
:203F000002032E00020C330002080B000203F300020355000203A40002080800020C4100BC
:203F2000020C4200020C4300020C4400020C4700020C1700020C3400020C3500020C37004A
:203F400002080D00020C4100020CC0000208090002080A0002080C0002080E0002080F00BF
:203F6000020CA300020C4100020C4100020C4100020C4000020C4500020C4800020C4A0054
:203F8000020C4600020C4900020C4B00020CA200020C3800020C3A00020C3C00020C3E0049
:183FA000020C3900020C3B00020C3D00020C3F00020C3600020C160079
:010C38003289
:010C39003288
:2001EE007800E84400600A790075923CE4F309D8FC7800E84400600C7900903C00E4F0A3A7
:04020E00D8FCD9FA45
:010C3A003287
:010C3B003286
:010C3C003285
:010C3D003284
:010C3E003283
:010C3F003282
:010C40003281
:010C41003280
:010C4200327F
:010C4300327E
:010C4400327D
:010C4500327C
:010C4600327B
:010C4700327A
:010C48003279
:010C49003278
:010C4A003277
:010C4B003276
:200C4C00AE82AF8390E600E05418C423541FFDB40100E433FD60067CB17D00801C90E60022
:200C6C00E05418C423541FFBBB01067A617B0180047AC27B028A048B058C138D1415137477
:160C8C00FFB513021514E513451470F11EBEFF011FEE4F70E42200
:010CA200321F
:010CA300321E
:0D01B900758121120CC1E58260030201B6C0
:1C0CA40020F71430F6148883A88220F507E6A88375830022E280F7E49322E0225F
:010CC0003201
:040CC1007582002216
:00000001FF
