:040000000201B9320E
:01000B0032C2
:0100130032BA
:01001B0032B2
:0100230032AA
:03002B00020424A8
:0300330002033590
:01003B003292
:01004300328A
:01004B003282
:01005300327A
:01005B003272
:01006300326A
:03006B0002033855
:03007300020BED90
:03007B000207C1B8
:030083000203FD78
:03008B0002035F0E
:030093000203AEB7
:03009B000207BE9B
:0300A300020BFC51
:0300AB00020BFD48
:0300B300020BFE3F
:0300BB00020C0133
:0300C300020BD15C
:0300CB00020BEE37
:0300D300020BEF2E
:0300DB00020BF124
:0300E3000207C34E
:0300EB00020C7A8A
:0300F3000207BF42
:0300FB000207C039
:030103000207C22E
:03010B000207C424
:030113000207C51B
:03011B00020C5D76
:03012300020BFAD2
:03012B00020BFFC5
:03013300020C02B9
:03013B00020C04AF
:03014300020BFBB1
:03014B00020C00A3
:03015300020C0398
:03015B00020C058E
:03016300020C5C2F
:03016B00020BF292
:03017300020BF488
:03017B00020BF67E
:03018300020BF874
:03018B00020BF371
:03019300020BF567
:03019B00020BF75D
:0301A300020BF953
:0301AB00020BF054
:0301B300020BD06C
:09021200E4F508F509C200C2017F
:030230000201B612
:0301B6000202330F
:2002330090E600E0FF74E75FF012077AE500D2E890E668E0FF74084FF090E65CE0FF7401DC
:200253004FF0E0FF74104FF0E0FF74204FF0E0FF74084FF0D2DDD2AF75CA0C75CBFE75C868
:2002730000D2ADD2CA90E680E0FF20E11890E680E0FF740A4FF09005DC120C0690E680E065
:20029300FF74F75FF090E671E4F090E670F075B4FF75B2801207BD10000280031207C610D8
:2002B300010280F090E682E0FF74C04FF090E6817401F043870100000000000000E50E70E4
:2002D3002090E682E0FF30E60890E682E0FF20E0D390E682E0FF30E70890E682E0FF20E17E
:2002F300C390E682E0FF30E60890E682E0FF20E01090E682E0FF30E79B90E682E0FF30E1DB
:2003130093900005120C0690E680E0FF74014FF090000F120C0690E680E0FF74FE5FF0029A
:2003330002A7C2DC32C0E0C082C083C007C0D075D000D200AF9174EF5FF59190E65D7401CE
:20035300F0D0D0D007D083D082D0E032C021C0E0C0F0C082C083C007C006C005C004C0030D
:20037300C002C001C000C0D075D000758200120ABCAF9174EF5FF59190E65D7410F0D0D014
:20039300D000D001D002D003D004D005D006D007D083D082D0F0D0E0D02132C021C0E0C035
:2003B300F0C082C083C007C006C005C004C003C002C001C000C0D075D000758201120ABCF4
:2003D300AF9174EF5FF59190E65D7420F0D0D0D000D001D002D003D004D005D006D007D01F
:2003F30083D082D0F0D0E0D02132C0E0C082C083C007C0D075D000D201AF9174EF5FF59166
:2004130090E65D7408F0D0D0D007D083D082D0E032C0E0C0D0B287E50845096013150874E4
:17043300FFB508021509E50845097004D2A0D2A1C2CFD0D0D0E0322F
:03021B00750A0061
:20044A00AF827401B5130280157402B5130280127405B51302800F740AB51312800C7E483F
:20046A0080107E24800C7E0080087E6C800475820022EF60047FE080027F1CEFF4FDE5A0F3
:20048A005205EF5E4DF5A075820122AF82BF01028003BF021174072FFF90E618F090E61AB3
:2004AA00EFF0758201227582002290E6F574FFF000000090E6047480F000000090E6047406
:2004CA0082F000000090E6047486F000000090E604E4F02290E6F574FFF0000000E50A709F
:2004EA000790E6487406F02290E6487402F0221204B47EE87F031EBEFF011FEE4F70F7E525
:20050A00BB30E7FB00000090E6D07428F000000090E6D1E4F0E50A700575BB06800375BBCA
:20052A0004E4F508F509D2A0C2A122AF8290E680E0FE30E7067D1C7E3D80047DA67E3DEF10
:20054A0075F010A42416FBE435F0FCEB2DFDEC3EFC7E80EFF50A703590E612E4F090E6148C
:20056A0074E0F090E6E27401F08D828C838EF0120C5E90E625F074012DFAE43CFB8E078AF7
:20058A00828B838FF0120C5E90E624F02290E61274D8F090E614E4F090E6D204F08D828C21
:2005AA00838EF0120C5EFF90E621F00DBD00010C8D828C838EF0120C5EFF90E62074075FD0
:2005CA00F08D828C838EF0120C5EC423541F90E64004F022AF827E00EE75F007A4FCADF09D
:2005EA00247FF582ED340CF583E493FBB5070280080EBE0CE375820022EC247FFCED340CEE
:20060A00FD74062CF582E43DF583E49390E601F075AF07759DE4759E008C828D83A3E493D3
:20062A0090E67CF08C828D83A3A3E49390E67CF07401F0E4F0F0F0F0F08C828D83A3A3A311
:20064A009390E67CF08C828D83A3A3A3A3E49390E67CF07401F0E4F0F0F0F0F08C828D8301
:20066A00A3A3A3A3A39390E67CF07444F0F0E4F0F0F0F0F0F0F0F0F0F0F0F0F07F0090E62B
:20068A007CE4F00FBF600040F57582012275820022AD13AE14AF158D828E838FF0E50A1284
:2006AA000BD275820122E582FF7006850B82120535758201227582002275820122AF82C0C1
:2006CA00071204DED007C2A0D2A17508E8750903BFE0028017BFE1028012BFE2028031BF04
:2006EA00E302804ABFE402806502077690E68AE4F090E68BF090E6A0E0FE20E1F8EF242053
:20070A00FF90E740E0F5138F8212044A7582012290E68AE4F090E68BF090E6A0E0FF20E1EB
:20072A00F890E740E0F5821205DE7582012290E68AE4F090E68BF090E6A0E0FF20E1F89057
:20074A00E740E0FFBF01031204F97582012290E68AE4F090E68BF090E6A0E0FF20E1F8905A
:20076A00E740E0F582120495758201227582002290E613E4F090E615F090E6C2F090E6C3DA
:20078A007480F090E6C0E4F090E6F4F01204DE75130175820012044A75130175820112049C
:1407AA004A7582011205DE758202120495758200020535220B
:200C7F00308000030000EA1E8000030000AA180100020140CA100101020040CA0C02010218
:200C9F000040CA080302020040CA040605020040CA020C0B020040CA011817020040CA3264
:140CBF00302F020040CA147877020040CA0AF0EF020040CAB2
:203D000012010002FFFFFF40B50422600000010200010A060002000000400100090289002B
:203D200001010080370904000001FF000000070586020002000904000101FF00010007050C
:203D400082010014010904000201FF00010007058201000C010904000301FF000100070502
:203D600082010004010904000401FF000100070582010004020904000501FF0001000705F5
:203D800082010004030904000601FF000100070582010004040904000701FF0001000705CD
:053DA000820100020495
:203DA6000902390002010080370904000001FF000000070586024000000904000101FF0010
:193DC600010007058201FF03010904000201FF00010007058201000201AF
:203DE0000403090408034F0044004D002003480061006E00740065006B00440053004F0060
:0E3E0000360030003200320042004500000063
:0107BE003208
:0107BF003207
:0107C0003206
:0107C1003205
:0107C2003204
:0107C3003203
:0107C4003202
:0107C5003201
:0601E800E478FFF6D8FDEB
:12021E00750D00750E00750FA675103D75111C75123D77
:2007C60090E6B9E0FF24F450030208CCEF240A83F582EF241083F583E473F80ECC24CCCCAA
:2007E6003ACC4A6179AD070808080808080808080808120946E58260030208E290E6A0E0B0
:20080600FF74014FF00208E21209CFE58260030208E290E6A0E0FF74014FF00208E2120AE2
:200826003BE58260030208E290E6A0E0FF74014FF00208E2120697E58260030208E2120AAB
:20084600E70208E21206BFAF8290E740EFF090E68AE4F090E68B04F00208E290E6BAE0F567
:20086600821206C3E582707490E6A0E0FF74014FF0806990E6BCE0FF75130C751400751580
:20088600408F8212069BE582700B90E6A0E0FF74014FF0804790E740E50CF090E68AE4F090
:2008A60090E68B04F0803590E6BCE0FF90E6BAE0F50B8F821206B0E582702190E6A0E0FFA1
:2008C60074014FF0801690E6B9E0F5821206C7E582700990E6A0E0FF74014FF090E6A0E0E4
:2008E600FF74804FF022AF828F0653067FEE24F75003020942EE240A83F582EE240D83F5AA
:2009060083E4731B1F324236423A423E09090909090909090990E6A022EF30E7067EA27FE3
:20092600E680047EA17FE68E828F832290E6A32290E6A42290E6A52290E6A62290000022DB
:2009460090E6B8E0FFBF8002801FBF81028005BF826F803490E740E4F090E741F090E68A46
:20096600F090E68B7402F0805CE50E25E0FFE50D420790E740EFF090E741E4F090E68AF0FA
:2009860090E68B7402F0803D90E6BCE0F5821208ECAE82AF83EE4F7003F582228E828F83D1
:2009A600E0FE30E0047F0180027F0090E740EFF090E741E4F090E68AF090E68B7402F080C5
:2009C60004758200227582012290E6B8E0FF6005BF0255801190E6BAE0FFBF0105750E006A
:2009E600804F7582002290E6BAE0703890E6BCE0F5821208ECAE82AF83E0FD5305FE8E821D
:200A06008F83EDF090E6BCE0FF53070F90E6BCE05480C423541FFE90E6832FF0E0FF74209E
:200A26004FF0800D7582002290E6B9E0F5820206C77582012290E6B8E0FF6005BF026A803F
:200A46001B90E6BAE0FFBF0202806790E6BAE0FFBF0105750E01805A7582002290E6BAE061
:200A6600704390E6BCE0F5821208ECAE82AF83EE4F7003F582228E828F83E0FD4305018EAD
:200A8600828F83EDF090E6BCE0FF53070F90E6BCE05480C423541FFE90E6832FF0E0FF74BC
:200AA600204FF0800D7582002290E6B9E0F5820206C775820122AF82D20210AF02C202EF43
:200AC600600E750F1C75103D7511A675123D800C750FA675103D75111C75123DA20292AF8D
:200AE6002290E6BBE0FFBF01028019BF02028029BF03028033BF0603020BA2BF0703020B33
:200B0600B7020BC67E007F3D8F0690E6B3EEF07E007F3D90E6B4EEF022AF1090E6B3EFF044
:200B2600AE0F90E6B4EEF0227DE07E3D7F8090E6BAE0F5137B008B020BEAB5130280428D83
:200B4600008E018F028D828E838FF0120C5E28F8E439F9880589068A0774012DF9E43EFABA
:200B66008F0489828A838CF0120C5EF9B9030280067D007E007F00ED4E6006C3E5139B50CE
:200B8600B5ED4E600D8E0790E6B3EFF090E6B4EDF02290E6A0E0FF74014FF0227E127F3D15
:200BA6008F0690E6B3EEF07E127F3D90E6B4EEF022AF1290E6B3EFF0AE1190E6B4EEF0226B
:0A0BC60090E6A0E0FF74014FF0225A
:2001C6007900E94400601B7A00900CD3780075923CE493F2A308B800020592D9F4DAF275E1
:0201E60092FF86
:010BD00032F2
:010BD10032F1
:1B0BD20020F71130F6138883A88220F509F6A8837583002280FEF280F5F02222
:010BED0032D5
:010BEE0032D4
:010BEF0032D3
:010BF00032D2
:010BF10032D1
:03004300023F0079
:203F000002033800020BED000207C1000203FD0002035F000203AE000207BE00020BFB00B8
:203F2000020BFC00020BFD00020BFE00020C0100020BD100020BEE00020BEF00020BF10081
:203F40000207C300020BFB00020C7A000207BF000207C0000207C2000207C4000207C5000E
:203F6000020C5D00020BFB00020BFB00020BFB00020BFA00020BFF00020C0200020C040089
:203F8000020C0000020C0300020C0500020C5C00020BF200020BF400020BF600020BF8007D
:183FA000020BF300020BF500020BF700020BF900020BF000020BD00023
:010BF20032D0
:010BF30032CF
:2001EE007800E84400600A790075923CE4F309D8FC7800E84400600C7900903C00E4F0A3A7
:04020E00D8FCD9FA45
:010BF40032CE
:010BF50032CD
:010BF60032CC
:010BF70032CB
:010BF80032CA
:010BF90032C9
:010BFA0032C8
:010BFB0032C7
:010BFC0032C6
:010BFD0032C5
:010BFE0032C4
:010BFF0032C3
:010C000032C1
:010C010032C0
:010C020032BF
:010C030032BE
:010C040032BD
:010C050032BC
:200C0600AE82AF8390E600E05418C423541FFDB40100E433FD60067CB17D00801C90E60068
:200C2600E05418C423541FFBBB01067A617B0180047AC27B028A048B058C138D14151374BD
:160C4600FFB513021514E513451470F11EBEFF011FEE4F70E42246
:010C5C003265
:010C5D003264
:0D01B900758121120C7BE58260030201B606
:1C0C5E0020F71430F6148883A88220F507E6A88375830022E280F7E49322E022A5
:010C7A003247
:040C7B00758200225C
:00000001FF
