:040000000201B9320E
:01000B0032C2
:0100130032BA
:01001B0032B2
:0100230032AA
:03002B00020424A8
:0300330002033590
:01003B003292
:01004300328A
:01004B003282
:01005300327A
:01005B003272
:01006300326A
:03006B0002033855
:03007300020C4D2F
:03007B0002081D5B
:030083000203FD78
:03008B0002035F0E
:030093000203AEB7
:03009B0002081A3E
:0300A300020C85C7
:0300AB00020C86BE
:0300B300020C87B5
:0300BB00020C8AAA
:0300C300020C31FB
:0300CB00020C4ED6
:0300D300020C4FCD
:0300DB00020C51C3
:0300E30002081FF1
:0300EB00020D3BC8
:0300F30002081BE5
:0300FB0002081CDC
:0301030002081ED1
:03010B00020820C7
:03011300020821BE
:03011B00020CE6ED
:03012300020C8348
:03012B00020C883B
:03013300020C8B30
:03013B00020C8D26
:03014300020C8427
:03014B00020C891A
:03015300020C8C0F
:03015B00020C8E05
:03016300020CE5A6
:03016B00020C5231
:03017300020C7DFE
:03017B00020C7FF4
:03018300020C81EA
:03018B00020C7CE7
:03019300020C7EDD
:03019B00020C80D3
:0301A300020C82C9
:0301AB00020C50F3
:0301B300020C300B
:09021200E4F508F509C200C2017F
:030230000201B612
:0301B6000202330F
:2002330090E600E0FF74E75FF01207D6E500D2E890E668E0FF74084FF090E65CE0FF740180
:200253004FF0E0FF74104FF0E0FF74204FF0E0FF74084FF0D2DDD2AF75CA0C75CBFE75C868
:2002730000D2ADD2CA90E680E0FF20E11890E680E0FF740A4FF09005DC120C8F90E680E0DC
:20029300FF74F75FF090E671E4F090E670F075B4FF75B2801208191000028003120822101E
:2002B300010280F090E682E0FF74C04FF090E6817401F043870100000000000000E51170E1
:2002D3002090E682E0FF30E60890E682E0FF20E0D390E682E0FF30E70890E682E0FF20E17E
:2002F300C390E682E0FF30E60890E682E0FF20E01090E682E0FF30E79B90E682E0FF30E1DB
:2003130093900005120C8F90E680E0FF74014FF090000F120C8F90E680E0FF74FE5FF00288
:2003330002A7C2DC32C0E0C082C083C007C0D075D000D200AF9174EF5FF59190E65D7401CE
:20035300F0D0D0D007D083D082D0E032C021C0E0C0F0C082C083C007C006C005C004C0030D
:20037300C002C001C000C0D075D000758200120B1CAF9174EF5FF59190E65D7410F0D0D0B3
:20039300D000D001D002D003D004D005D006D007D083D082D0F0D0E0D02132C021C0E0C035
:2003B300F0C082C083C007C006C005C004C003C002C001C000C0D075D000758201120B1C93
:2003D300AF9174EF5FF59190E65D7420F0D0D0D000D001D002D003D004D005D006D007D01F
:2003F30083D082D0F0D0E0D02132C0E0C082C083C007C0D075D000D201AF9174EF5FF59166
:2004130090E65D7408F0D0D0D007D083D082D0E032C0E0C0D0B287E50845096013150874E4
:17043300FFB508021509E50845097004D2A0D2A1C2CFD0D0D0E0322F
:03021B00750A0061
:20044A00AF827401B5160280157402B5160280127405B51602800F740AB51612800C7E4833
:20046A0080107E24800C7E0080087E6C800475820022EF60047FE080027F1CEFF4FDE5A0F3
:20048A005205EF5E4DF5A075820122850D16751700905DC0120D03AE82AF83C3E50B9EE517
:2004AA000C9F400A90E640E0FF747F5FF02290E640E0FF74804FF022AF82BF01028003BF25
:2004CA00021674072FFE90E618F090E61AEEF08F0D120495758201227582002290E6F5740D
:2004EA00FFF000000090E6047480F000000090E6047482F000000090E6047486F0000000E1
:20050A0090E604E4F02290E6F574FFF0000000E50A700790E6487406F02290E6487402F0BF
:20052A00221204E67EE87F03EE24FFFCEF34FFFD8C068D07EC4D70F0E5BB30E7FB0000000E
:20054A0090E6D07428F000000090E6D1E4F0E50A700575BB06800375BB04E4F508F509D2A2
:20056A00A0C2A122AF8290E680E0FE30E7067D1C7E3D80047DA67E3DEF75F010A42416FB37
:20058A00E435F0FCEB2DFDEC3EFC7E80EFF50A703590E612E4F090E61474E0F090E6E2748A
:2005AA0001F08D828C838EF0120CE790E625F074012DFAE43CFB8E078A828B838FF0120C11
:2005CA00E790E624F02290E61274D8F090E614E4F090E6D204F08D828C838EF0120CE7FF80
:2005EA0090E621F00DBD00010C8D828C838EF0120CE7FF90E62074075FF08D828C838EF0F7
:20060A00120CE7C423541F90E64004F0020495AF827E00EE75F009A4FCADF02440F582ED1C
:20062A00340DF583E493FBB5070280080EBE0CE375820022EC2440FCED340DFD8C828D83D6
:20064A00A3E493F50BA3E493F50CC005C004120495D004D00574082CF582E43DF583E4934F
:20066A0090E601F075AF07759DE4759E008C828D83A3A3A3E49390E67CF08C828D83A3A311
:20068A00A3A3E49390E67CF07401F0E4F0F0F0F0F08C828D83A3A3A3A3A39390E67CF07482
:2006AA00062CF582E43DF583E49390E67CF07401F0E4F0F0F0F0F074072CF582E43DF583E5
:2006CA00E49390E67CF07444F0F0E4F0F0F0F0F0F0F0F0F0F0F0F0F07F0090E67CE4F00FB7
:2006EA00BF600040F57582012275820022AD16AE17AF188D828E838FF0E50A120C32758245
:20070A000122E582FF7006850E8212056E758201227582002275820122AF82C007120510CA
:20072A00D007C2A0D2A17508E8750903BFE0028017BFE1028012BFE2028031BFE302804AEF
:20074A00BFE40280650207D290E68AE4F090E68BF090E6A0E0FE20E1F8EF2420FF90E7408F
:20076A00E0F5168F8212044A7582012290E68AE4F090E68BF090E6A0E0FF20E1F890E7408F
:20078A00E0F5821206197582012290E68AE4F090E68BF090E6A0E0FF20E1F890E740E0FF64
:2007AA00BF010312052B7582012290E68AE4F090E68BF090E6A0E0FF20E1F890E740E0F5D1
:2007CA00821204C2758201227582002290E613E4F090E615F090E6C2F090E6C37480F090D5
:2007EA00E6C0E4F090E6F4F012051075160175820012044A75160175820112044A75820135
:10080A001206197582021204C275820002056E224E
:200D40003080BB8000030000EA1E30758000030000AA18C05D0100020140CA10803E0101B8
:200D6000020040CA0CE02E0201020040CA08401F0302020040CA04A00F0605020040CA02FA
:200D8000D0070C0B020040CA01E8031817020040CA32F401302F020040CA14C800787702D3
:0C0DA0000040CA0A6400F0EF020040CAE4
:203D000012010002FFFFFF40B50422600000010200010A060002000000400100090289002B
:203D200001010080370904000001FF000000070586020002000904000101FF00010007050C
:203D400082010014010904000201FF00010007058201000C010904000301FF000100070502
:203D600082010004010904000401FF000100070582010004020904000501FF0001000705F5
:203D800082010004030904000601FF000100070582010004040904000701FF0001000705CD
:053DA000820100020495
:203DA6000902390002010080370904000001FF000000070586024000000904000101FF0010
:193DC600010007058201FF03010904000201FF00010007058201000201AF
:203DE0000403090408034F0044004D002003480061006E00740065006B00440053004F0060
:0E3E0000360030003200320042004500000063
:01081A0032AB
:01081B0032AA
:01081C0032A9
:01081D0032A8
:01081E0032A7
:01081F0032A6
:0108200032A5
:0108210032A4
:0601E800E478FFF6D8FDEB
:12021E007510007511007512A675133D75141C75153D65
:2008220090E6B9E0FF24F45003020928EF240A83F582EF241083F583E473546A28802828C8
:200842009628A6BDD5090808090809090809080808091209A2E582600302093E90E6A0E06C
:20086200FF74014FF002093E120A2FE582600302093E90E6A0E0FF74014FF002093E120A0E
:200882009BE582600302093E90E6A0E0FF74014FF002093E1206F3E582600302093E120B7B
:2008A2004702093E12071BAF8290E740EFF090E68AE4F090E68B04F002093E90E6BAE0F594
:2008C2008212071FE582707490E6A0E0FF74014FF0806990E6BCE0FF75160F7517007518BB
:2008E200408F821206F7E582700B90E6A0E0FF74014FF0804790E740E50FF090E68AE4F0D5
:2009020090E68B04F0803590E6BCE0FF90E6BAE0F50E8F8212070CE582702190E6A0E0FFE4
:2009220074014FF0801690E6B9E0F582120723E582700990E6A0E0FF74014FF090E6A0E02A
:20094200FF74804FF022AF828F0653067FEE24F7500302099EEE240A83F582EE240D83F5F1
:2009620083E473777B8E9E929E969E9A09090909090909090990E6A022EF30E7067EA27F4B
:20098200E680047EA17FE68E828F832290E6A32290E6A42290E6A52290E6A622900000227F
:2009A20090E6B8E0FFBF8002801FBF81028005BF8273803490E740E4F090E741F090E68AE6
:2009C200F090E68B7402F08060E51125E0FFE510420790E740EFF090E741E4F090E68AF094
:2009E20090E68B7402F0804190E6BCE0F582120948AE82AF838E048F05EE4F7003F5822210
:200A02008C828D83E0FC30E0047F0180027F0090E740EFF090E741E4F090E68AF090E68B32
:200A22007402F08004758200227582012290E6B8E0FF6005BF0255801190E6BAE0FFBF01AF
:200A420005751100804F7582002290E6BAE0703890E6BCE0F582120948AE82AF83E0FD53EB
:200A620005FE8E828F83EDF090E6BCE0FF53070F90E6BCE05480C423541FFE90E6832FF0A2
:200A8200E0FF74204FF0800D7582002290E6B9E0F5820207237582012290E6B8E0FF6005BE
:200AA200BF026A801B90E6BAE0FFBF0202806790E6BAE0FFBF0105751101805A7582002267
:200AC20090E6BAE0704390E6BCE0F582120948AE82AF83EE4F7003F582228E828F83E0FDBB
:200AE2004305018E828F83EDF090E6BCE0FF53070F90E6BCE05480C423541FFE90E6832FCC
:200B0200F0E0FF74204FF0800D7582002290E6B9E0F58202072375820122AF82D20210AFFB
:200B220002C202EF600E75121C75133D7514A675153D800C7512A675133D75141C75153D48
:200B4200A20292AF2290E6BBE0FFBF01028019BF02028029BF03028033BF0603020C02BFA7
:200B62000703020C17020C267E007F3D8F0690E6B3EEF07E007F3D90E6B4EEF022AF139084
:200B8200E6B3EFF0AE1290E6B4EEF0227DE07E3D7F8090E6BAE0F5167B008B020BEAB516F7
:200BA2000280428D008E018F028D828E838FF0120CE728F8E439F9880589068A0774012D99
:200BC200F9E43EFA8F0489828A838CF0120CE7F9B9030280067D007E007F00ED4E6006C3B7
:200BE200E5169B50B5ED4E600D8E0790E6B3EFF090E6B4EDF02290E6A0E0FF74014FF0221F
:200C02007E127F3D8F0690E6B3EEF07E127F3D90E6B4EEF022AF1590E6B3EFF0AE1490E670
:0E0C2200B4EEF02290E6A0E0FF74014FF02245
:2001C6007900E94400601B7A00900DAC780075923CE493F2A308B800020592D9F4DAF27507
:0201E60092FF86
:010C30003291
:010C31003290
:1B0C320020F71130F6138883A88220F509F6A8837583002280FEF280F5F022C1
:010C4D003274
:010C4E003273
:010C4F003272
:010C50003271
:010C51003270
:03004300023F0079
:203F000002033800020C4D0002081D000203FD0002035F000203AE0002081A00020C840013
:203F2000020C8500020C8600020C8700020C8A00020C3100020C4E00020C4F00020C5100D6
:203F400002081F00020C8400020D3B0002081B0002081C0002081E00020820000208210094
:203F6000020CE600020C8400020C8400020C8400020C8300020C8800020C8B00020C8D003C
:203F8000020C8900020C8C00020C8E00020CE500020C5200020C7D00020C7F00020C81005A
:183FA000020C7C00020C7E00020C8000020C8200020C5000020C300039
:010C5200326F
:200C53007A10E4FBFCE58225E0F582E58333F583EB33FBEC33FCEB9516F5F0EC9517400699
:090C7300FCABF0438201DADD2242
:010C7C003245
:2001EE007800E84400600A790075923CE4F309D8FC7800E84400600C7900903C00E4F0A3A7
:04020E00D8FCD9FA45
:010C7D003244
:010C7E003243
:010C7F003242
:010C80003241
:010C81003240
:010C8200323F
:010C8300323E
:010C8400323D
:010C8500323C
:010C8600323B
:010C8700323A
:010C88003239
:010C89003238
:010C8A003237
:010C8B003236
:010C8C003235
:010C8D003234
:010C8E003233
:200C8F00AE82AF8390E600E05418C423541FFD70057CB1FD801C90E600E05418C423541F73
:200CAF00FBBB01067A617B0180047AC27B028A048B058C168D17151674FFB516021517E5F4
:160CCF0016451770F1EE24FFFAEF34FFFB8A068B07EA4B70DD224E
:010CE50032DC
:010CE60032DB
:0D01B900758121120D3CE58260030201B644
:1C0CE70020F71430F6148883A88220F507E6A88375830022E280F7E49322E0221C
:200D0300C2D5E58330E70DD2D5E4C39582F582E49583F583E51730E70DB2D5E4C39516F56F
:180D230016E49517F517120C5330D50BE4C39582F582E49583F58322BA
:010D3B003285
:040D3C00758200229A
:00000001FF
